S01300006D61696E5F61746D6567612E737265639E
S11300000C942A000C943C000C943C000C943C008E
S11300100C943C000C943C000C943C000C943C006C
S11300200C943C000C943C000C943C000C943C005C
S11300300C943C000C943C000C943C000C943C004C
S11300400C943C000C943C000C943C000C94050172
S11300500C943C0011241FBECFE5D8E0DEBFCDBF19
S113006020E0A0E6B0E001C01D92A436B207E1F79B
S11300700E944E010C942C020C9400008F929F92CB
S1130080AF92BF92CF92DF92EF92FF926B017C010D
S1130090A4E3B0E00E9412020E94AC014B015C0197
S11300A081E0C816D104E104F10439F482B3886014
S11300B082BB82B3826082BB18C0C114D104E10444
S11300C0F10439F482B3877F82BB82B38D7F82BB14
S11300D00CC092E0C916D104E104F10451F482B3D6
S11300E08D7F82BB82B3886082BBC12CD12C760108
S11300F02AC083E0C816D104E104F104B1F782B345
S1130100877F82BB82B3826082BBEFCF82B384607D
S113011082BB82B3816082BB8FEC97E00197F1F7D9
S113012000C0000082B38B7F82BB82B38E7F82BB10
S11301308FEC97E00197F1F700C000009FEFC91A18
S1130140D90AE90AF90AC701B6010E94AC019B0168
S1130150AC01C501B4010E94E9011816BCF2FF907C
S1130160EF90DF90CF90BF90AF909F908F900895C5
S1130170613071058105910539F482B3886082BBD1
S113018082B3826082BB17C0611571058105910538
S113019039F482B3877F82BB82B38D7F82BB0BC06D
S11301A0623071058105910541F482B38D7F82BB74
S11301B082B3886082BB90E025C0633071058105FD
S11301C09105C9F782B3877F82BB82B3826082BB09
S11301D0F2CF82B3846082BB82B3816082BBEFE6DC
S11301E0F7E13197F1F700C0000082B38B7F82BB47
S11301F082B38E7F82BBEFE6F7E13197F1F700C05F
S113020000009F5F943028F308951F920F920FB659
S11302100F9211248F9381B1887F803849F0803AFE
S113022019F1803621F51092600085EC86BF21C05B
S113023080916000811109C083B180936300809133
S113024060008F5F809360000CC0809160008130FB
S113025041F483B18093620081E080936100109245
S1130260600085EC86BF05C085EC86BF02C085ECC6
S113027086BF8F910F900FBE0F901F90189584B377
S11302808C7F84BB85B3836085BB80E280B911B861
S113029080E182B985EC86BF7894089581B38F603C
S11302A081BB0E943F0198B381E0892788BB2FE777
S11302B088E391E0215080409040E1F700C00000C5
S11302C0809161008823E1F31092610080916300C2
S11302D0823011F128F4882341F0813089F0F0CF85
S11302E0833031F1853081F1EBCF2091620030E031
S11302F040E050E060E070E0CB010E943E00E0CFBF
S11303002091620030E040E050E061E070E080E085
S113031090E00E943E00D4CF2091620030E040E0A3
S113032050E062E070E080E090E00E943E00C8CFC0
S11303302091620030E040E050E063E070E080E053
S113034090E00E943E00BCCF6091620070E080E0CB
S113035090E00E94B800B4CFE89409C097FB3EF443
S113036090958095709561957F4F8F4F9F4F9923FE
S1130370A9F0F92F96E9BB279395F695879577957C
S11303806795B795F111F8CFFAF4BB0F11F460FF3C
S11303901BC06F5F7F4F8F4F9F4F16C0882311F094
S11303A096E911C0772321F09EE8872F762F05C0A8
S11303B0662371F096E8862F70E060E02AF09A9543
S11303C0660F771F881FDAF7880F9695879597F938
S11303D008950E94EE0108F48FEF0895990F000824
S11303E0550FAA0BE0E8FEEF16161706E807F90703
S11303F0C0F012161306E407F50798F0621B730B9E
S1130400840B950B39F40A2661F0232B242B252B1E
S113041021F408950A2609F4A140A6958FEF811DC1
S1130420811D08950E941D02A59F900DB49F900DFB
S1130430A49F800D911D11240895A29FB001B39F24
S1130440C001A39F700D811D1124911DB29F700DD9
S10F0450811D1124911D0895F894FFCF24
S9030000FC
